:100000000C94BD000C94A3060C94DA000C94DA0056
:100010000C94DA000C94DA000C94DA000C94DA00F8
:100020000C94DA000C94DA000C94DA000C94DA00E8
:100030000C94DA000C94DA000C94DA000C94DA00D8
:100040000C94DA000C94DA000C94A3040C94D804F9
:100050000C94DA000C94DA000C94DA000C94DA00B8
:100060000C94DA000C94DA009209CE098A09860908
:10007000820984099809CE09940990098C09880994
:1000800025090B09CE09CE09CE09CE09CE09CE0924
:100090003108A308CE09CE09CE0943083508E8097E
:1000A0003D08AB08CE09CE0915083F081708190806
:1000B000C308B708CE09CE0995083B081B083708C6
:1000C0003308CF08CE09CE092B0813081F081D08D6
:1000D0004108DB08CE09CE09CE098D08230839086E
:1000E000E708F308CE09CE094508250821082D08A0
:1000F0009708FF08CE09CE094D085508270829089A
:100100002F087508CE09CE09CE091D09CE09610850
:100110008108CE09CE099A09CE0927096908CE09B6
:100120000D09CE09CE09CE091509CE09CE09CE0991
:10013000CE092909CE09CE092B09CE093209390980
:10014000CE09CE09CE09400947094D09540956097F
:100150005D0964099A0996096A096C0973097C09A1
:1001600075099A09CE09CE09CE09CE098E096364B4
:10017000696E6F70737578585B0011241FBECFEFE6
:10018000D8E0DEBFCDBF16E0A0E0B1E0E0EFFCE1DB
:1001900002C005900D92AE3AB107D9F727E0AEEA5A
:1001A000B6E001C01D92A33DB207E1F70E94190419
:1001B0000C94760E0C9400006CE180E090E00E94BC
:1001C0002D0E6091C70781E090E00E942D0E609196
:1001D000CC0782E090E00E942D0E6091CA0783E078
:1001E00090E00E942D0E6091C90784E090E00E948B
:1001F0002D0E6091CB0785E090E00E942D0E60915E
:10020000C60786E090E00E942D0E6091C80787E047
:1002100090E00C942D0E82E494E00E947A058EE129
:1002200091E00E947A058091C707882319F080E445
:1002300091E002C086E491E00E947A058CE491E0AE
:100240000E947A058091CC070E9425068EE691E0F7
:100250000E947A0583E791E00E947A058091CA079F
:10026000882319F080E491E002C086E491E00E94C6
:100270007A0585E991E00E947A058091C9070E947C
:10028000250687EB91E00E947A058CEB91E00E94B5
:100290007A058091CB07882319F08EED91E002C09A
:1002A0008BEE91E00E947A058EEF91E00E947A0534
:1002B0008091C607882319F080E292E002C086E2AE
:1002C00092E00E947A058BE292E00E947A0580918A
:1002D000C807882319F08DE492E002C084E592E01B
:1002E0000E947A0582E494E00C947A0580E090E024
:1002F0000E94250E8C31B9F08BE592E00E947A05C0
:1003000081E08093C70795E09093CC078093CA075C
:1003100084E68093C9071092CB071092C60710920B
:10032000C8070C94DC0081E090E00E94250E8093C9
:10033000C70782E090E00E94250E8093CC0783E0FF
:1003400090E00E94250E8093CA0784E090E00E940E
:10035000250E8093C90785E090E00E94250E8093CA
:10036000CB0786E090E00E94250E8093C60787E0C9
:1003700090E00E94250E8093C8070895BF92CF9207
:10038000DF92EF92FF920F931F93CF93DF9300D0F2
:10039000CDB7DEB711E085E0B82E04E6CE010196B8
:1003A0006C019EE1E92E93E0F92E84E892E00E9430
:1003B0007A050E940B0189E992E00E947A050E9469
:1003C0005305892BE1F30E941D0599278733910579
:1003D00009F4E0C098F48333910509F465C038F45A
:1003E0008133910531F1C29709F442C0DECF8533E4
:1003F000910509F493C008F474C0AEC0833591052B
:1004000009F4E5C048F48434910509F4E7C0853463
:10041000910509F4F6C0C9CF8536910509F4F1C0FC
:100420008337910509F4D3C08436910509F0BDCF17
:10043000D5C08DEB92E00E947A050E945305892B6E
:10044000E1F30E941D058F7D803539F487EE92E03F
:100450000E947A051093C70708C08E3431F482EFEA
:1004600092E00E947A051092C70782E494E053C09C
:100470008DEF92E00E947A050E945F05DF92CF9295
:10048000FF92EF920E94F40A89819A819C01215087
:1004900031090F900F900F900F902F3F310508F00A
:1004A00084CF8093CC0781CF81E293E00E947A05CC
:1004B0000E945305892BE1F30E941D058F7D803535
:1004C00039F487EE92E00E947A051093CA07CDCFE7
:1004D0008E3459F682EF92E00E947A051092CA0794
:1004E000C4CF8CE493E00E947A050E945F05DF92FE
:1004F000CF92FF92EF920E94F40A89819A810F9025
:100500000F900F900F908F3F910509F010F480939A
:10051000C90780E494E00E947A0547CF81E793E021
:100520000E947A050E945305892BE1F30E941D0564
:100530008F7D823439F48CEA93E00E947A05109220
:10054000CB0793CF843409F090CF88EB93E00E94DF
:100550007A051093CB0789CF81EC93E00E947A054E
:100560000E945305892BE1F30E941D058F7D8C3479
:1005700039F48BEF93E00E947A051093C60775CF8C
:100580008E3409F072CF85E094E00E947A051092D3
:10059000C6076BCF83E194E00E947A050E94530561
:1005A000892BE1F30E941D05813339F48DE492E03B
:1005B0000E947A051093C80758CF883309F055CFA9
:1005C00084E592E00E947A051092C8074ECF87E337
:1005D00094E00E947A050E94DC00E7CE85E494E076
:1005E0000E947A051093C707B092CC071093CA07F0
:1005F0000093C9071092CB071092C6071092C80744
:10060000D4CE80E594E00E947A050F900F90DF91A0
:10061000CF911F910F91FF90EF90DF90CF90BF90FF
:1006200008958091C707882311F02D9A08952D9879
:1006300008958091C707882311F02D9808952D9A69
:10064000089598B1907C98B998B1282F2F73922B68
:1006500098B986FF02C05E9A01C05E9887FF02C00B
:100660005F9A08955F98089587FD2FC09091CA07FB
:10067000911101C080950E9421038091C9078823B0
:1006800031F024E0829FC00111240197F1F70E940C
:10069000110380E09091CC07891740F4EFE9FFE067
:1006A0003197F1F700C000008F5FF4CF0E9419036B
:1006B0008091C607811109C08091CA07882311F073
:1006C00080E001C08FEF0C9421030895259A0E94C9
:1006D000190387B18F6387B98AB1806C8AB9809119
:1006E000CA07882311F080E001C08FEF0C9421032A
:1006F000CF92DF92EF92FF920F931F93CF93DF93EE
:1007000000D0CDB7DEB787E594E00E947A05CE0130
:1007100001966C018EE1E82E83E0F82E8EE594E0E0
:100720000E947A050E945305892BE1F30E941D0562
:100730008C0199278735910501F138F483349105AF
:10074000A9F08335910559F033C08337910539F00D
:100750008737910591F08336910551F507C084E9FB
:1007600094E00E947A050E94110322C081EA94E07D
:100770000E947A050E9419031BC080EB94E00E943E
:100780007A058EEB94E00E947A050E945F05DF9265
:10079000CF92FF92EF920E94F40A82E494E00E94CA
:1007A0007A0589810E9421030F900F900F900F907E
:1007B0000F7D053409F0B2CF87EE94E00E947A05F0
:1007C0000E9419038091CA07882311F080E001C0BC
:1007D0008FEF0E9421030F900F90DF91CF911F9117
:1007E0000F91FF90EF90DF90CF9008958A3079F0CD
:1007F00018F4883029F40BC08D3049F08F3739F068
:1008000090EE980F81E09F3518F080E0089581E028
:1008100008958CE095E00E947A0581E595E00E94BC
:100820007A0580E695E00E947A0586E995E00C94C9
:100830007A050E944D0688ED95E00E947A0580E0D9
:1008400096E00E947A058BE296E00E947A050E946B
:10085000CB070E94740A8BE496E00E947A050E94FE
:1008600076010E940B010E9466030E940904D0E0F9
:100870000E94FD07882349F10E940408C82F803890
:1008800039F48091CB07811102C0C8E001C0CFE7E5
:100890008C2F0E94F603882351F08C2F0E943A057A
:1008A000CD3019F48AE00E943A05DD2359F086E63E
:1008B00096E00E947A058C2F0E942F068AE696E029
:1008C0000E947A058C2F0E9434030E945305892BC5
:1008D00079F20E941D05C82F823139F48CE696E02A
:1008E0000E947A050E94740A25C0843069F4D130D0
:1008F00031F082E996E00E947A05D1E0B9CF8FE924
:1009000096E00E947A05B3CF893181F40E94BE013E
:100910000E9419038091CA07882311F080E001C06A
:100920008FEF0E9421030E940B0104C0843129F43F
:100930000E9478030E9409049BCF0E943A058C2FE5
:100940000E94340395CF1F920F920FB60F9211247D
:100950002F933F934F935F938F939F93EF93FF93C7
:100960002091C0003091C60028718091B00690E0BF
:1009700001968F7799274091AF0650E0841795072D
:1009800039F08093B006FC01ED54F94F308301C07B
:1009900022E02093AE06FF91EF919F918F915F919E
:1009A0004F913F912F910F900FBE0F901F90189570
:1009B0001F920F920FB60F9211248F939F93EF9374
:1009C000FF939091B2068091B106981779F08091CB
:1009D000B10690E001968F7799278093B106FC01CC
:1009E000ED5CF84F80818093C60005C08091C10006
:1009F0008F7D8093C100FF91EF919F918F910F9018
:100A00000FBE0F901F9018951092B2061092B1066B
:100A10001092B0061092AF0697FF04C022E0209318
:100A2000C0009F779093C5008093C40088E98093AD
:100A3000C10086E08093C20008959091B006809135
:100A4000AF069817A1F08091AF0690E001968F77DE
:100A500099278093AF06FC01ED54F94F20818091D6
:100A6000AE0690E0982F8827820F911D089580E0B0
:100A700091E008952091B20630E02F5F3F4F2F772D
:100A800033274091B10650E024173507D1F3F9011F
:100A9000ED5CF84F80832093B2068091C1008062A4
:100AA0008093C10008958091B0062091AF0690E038
:100AB00080589F4F821B91098F77992708958091C5
:100AC000AF068093B00608950E943A0580E090E05A
:100AD0000895CF93DF930E941D05C82FD92FC1150C
:100AE00091E0D907C1F30E943A05CE019927DF9121
:100AF000CF910895CF93DF93EC018991882319F06A
:100B00000E943A05FACFDF91CF9108954F925F92FC
:100B10006F927F928F929F92AF92BF92CF92DF920D
:100B2000EF92FF92CF934B015C0169017A018AE059
:100B3000482E512C612C712CC114D104E104F10414
:100B4000F1F0C501B401A70196010E94B20AC22FBB
:100B500080E3820F0E943A05AC2FB0E0A701960116
:100B60000E94DA0A861A970AA80AB90AC701B601CA
:100B7000A30192010E94B20A69017A01DDCFCF91EF
:100B8000FF90EF90DF90CF90BF90AF909F908F90AD
:100B90007F906F905F904F9008954F925F926F9209
:100BA0007F928F929F92AF92BF92CF92DF92EF92FD
:100BB000FF92CF934B015C0169017A01C0E08AE0AA
:100BC000482E512C612C712CC114D104E104F10484
:100BD00091F0C11121C0C501B401A70196010E9485
:100BE000B20AC22FC701B601A30192010E94B20A44
:100BF00069017A01E9CF80E38C0FCF91FF90EF90EC
:100C0000DF90CF90BF90AF909F908F907F906F902C
:100C10005F904F900C943A05AAE0B0E0A7019601CE
:100C20000E94DA0A9B01AC01C501B401CF91FF908B
:100C3000EF90DF90CF90BF90AF909F908F907F907C
:100C40006F905F904F900C948605682F70E080E065
:100C500090E024E630E040E050E00C94CD05CF93E6
:100C6000C82FE82FE295EF70F0E0E25FFE4F808141
:100C70000E943A05EC2FEF700E2E000CFF0BE25F86
:100C8000FE4F8081CF910C943A05A8950895E0E637
:100C9000F0E098E1908380830895F8940E944506DF
:100CA00080E00E944706259A80E190E00E940405BA
:100CB0007894EDECF7E080E091E09183808393837A
:100CC000828395838483089548E050E021E030E0FA
:100CD00080FF02C02F5F3F4F869541505109C1F7F9
:100CE000822F8170089591E09093B9071092B80710
:100CF0001092B7078093B6079093B5070E946406D9
:100D00008093B4075B9A539A529A5A9880EC93E076
:100D10000197F1F75B985A9A52988091B507811123
:100D2000FCCF1092B9070895CF93C82F1092B30744
:100D30008DEE0E9473068091B3078823E1F38C2F18
:100D4000CF910C9473061F920F920FB60F9211243D
:100D50002F933F934F935F936F937F938F939F93C3
:100D6000AF93BF93CF93DF93EF93FF9389B19091AC
:100D7000B9079923F1F18091B7079091B8070196CF
:100D80009093B8078093B7078091B7079091B80701
:100D90008A30910534F4823091059CF4019721F159
:100DA000E7C08B30910511F1CCF00C9709F0E0C051
:100DB00089B183FB882780F98093B5071092B90722
:100DC000D7C08091B60780FF02C05B9A01C05B98D4
:100DD0008091B60786958093B607CAC08091B40704
:100DE000882311F05B9AC4C05B98C2C05B9A539889
:100DF000BFC083FB882780F9C82F40E0D42F8091A3
:100E0000C307882399F08091C307893078F49091C3
:100E1000C3072091C4079150AE0102C0440F551F73
:100E20009A95E2F7CA01822B8093C4078091C30789
:100E30008F5F8093C3078091C3078A3051F48091FC
:100E4000C4070E94640690E0C817D90711F01092F9
:100E5000C4078091C3078B3009F08AC08091C40712
:100E6000873709F45EC078F4843109F446C028F469
:100E7000813169F1823119F16CC0883509F445C0BE
:100E80008935E9F066C0813EB1F030F48E3709F45F
:100E900054C0803E81F05DC0803F39F08A3F09F048
:100EA00058C081E08093B3075FC081E08093BD07A5
:100EB0001092BE0759C081E08093BE0755C0909143
:100EC000BD0781E0911180E08093C20746C0809108
:100ED000BE0781110EC09091BD0781E0911180E0A5
:100EE0008093C0078091BF078823B9F11092BF0794
:100EF00034C081E08093BF0730C09091BD0781E08E
:100F0000911180E08093C10728C08091BD078111B5
:100F100024C09091BC0781E0911180E08093BC07D0
:100F20001FC08091BD07811118C09091BB0781E05F
:100F3000911180E08093BB0713C08091BD078111A0
:100F40000CC09091BA0781E0911180E08093BA07BC
:100F500007C08091BD07882319F01092BD0704C017
:100F60008091C4078093C5071092C4071092C307ED
:100F7000FF91EF91DF91CF91BF91AF919F918F91B1
:100F80007F916F915F914F913F912F910F900FBE85
:100F90000F901F9018951092C4071092C5071092D9
:100FA000C3071092C2071092C1071092C007109297
:100FB000BF071092BE071092BD071092BC07109297
:100FC000BB071092BA071092B9071092B807109297
:100FD000B7071092B60781E08093B50752985398EF
:100FE0005A9A5B9AE9E6F0E0808182608083808192
:100FF0008E7F8083E89A789408959091C50781E068
:10100000911101C080E00895CF93C091C5078C2F46
:1010100090E0FC013197E338F10508F0BFC1EC5CCA
:10102000FF4F0C94D40AC2E62EC2C3E62CC2C4E61B
:101030002AC2C5E628C2C6E626C2C7E624C2C8E65A
:1010400022C2C9E620C2CAE61EC2CBE61CC2CCE65A
:101050001AC2CDE618C2CEE616C2CFE614C2C0E769
:1010600012C2C1E610C2C2E70EC2C3E70CC2C4E797
:101070000AC2C5E708C2C6E706C2CAE704C2C8E793
:1010800002C2C9E700C2C7E7FEC19091C2078091C2
:10109000BC0798139FC1CBE3F6C19091C207809122
:1010A000BC07981399C1CAE3EEC18091BE078111B4
:1010B00095C19091C2078091BC07981391C1C1E27C
:1010C000E2C19091C2078091BC0798138BC1CEE515
:1010D000DAC18091BF07811187C19091C2078091C9
:1010E000BC07981383C1C4E2CEC18091BF078111B0
:1010F0007FC19091C2078091BC0798137BC1C9E260
:10110000C2C18091BF07811177C19091C2078091C0
:10111000BC07981373C1CDE3B6C19091C20780910B
:10112000BC0798136DC1CCE2AEC1C0E2ACC18091E6
:10113000BF07811167C19091C2078091BC079813C6
:1011400063C1C0EAA0C19091C2078091BC07981307
:101150005DC1C6E298C18091BF07811159C19091CC
:10116000C2078091BC07981355C1C9EA8CC1809110
:10117000BF07811151C19091C2078091BC0798139C
:101180004DC1C2E280C18091BF07811149C19091D8
:10119000C2078091BC07981345C1C7E274C1809112
:1011A000BF07811141C19091C2078091BC0798137C
:1011B0003DC1C8E268C18091BF07811139C19091DA
:1011C000C2078091BC0798135EC1CDE25CC18091DB
:1011D000BF0781112FC19091C2078091BC0798135E
:1011E0002BC1C8EA50C18091BF07811127C19091DE
:1011F000C2078091BC07981323C1CFE544C18091F9
:10120000BF0781111FC19091C2078091BC0798133D
:101210001BC1C7EA38C1C2EB36C19091C2078091A9
:10122000BC07981313C1CAE22EC19091C2078091E6
:10123000BC0798130DC1CCE326C19091C2078091E1
:10124000BC07981307C1C9EB1EC1C9E01CC1CDE0A2
:101250001AC1C0E818C18091BB07882309F4FCC0FB
:10126000C1E311C18091BB07882309F4F7C0C4E32F
:101270000AC18091BB07882309F4F2C0C7E303C108
:101280008091BB07882309F4EDC0C0E3FCC08091C6
:10129000BB078111E9C0CAE8F6C08091BB0788236B
:1012A00009F4E4C0C2E3EFC0C5E3EDC08091BB0721
:1012B000882309F4DDC0C6E3E6C08091BB0788231C
:1012C00009F4D8C0C8E3DFC08091C8078111D4C039
:1012D000CBE8D9C0CBE2D7C08091BB07882309F403
:1012E000CDC0C3E3D0C0CDE2CEC08091BB07882380
:1012F00009F4C6C0C9E3C7C08091BE078111C2C04E
:10130000CAE2C1C0C0EABFC0C1EABDC0C2EABBC038
:10131000C3EAB9C0C4EAB7C0C5EAB5C0C6EAB3C03B
:10132000C7EAB1C0C8EAAFC0C9EAADC0CAEAABC03B
:10133000CBEAA9C08091BE0781112BC0C83531F41A
:101340008091BC078111C9C0CDE811C0C73731F405
:101350008091BB078111BFC0CFE809C0CE3739F4F7
:101360008091BA07811102C0C1E901C0C0E9809132
:10137000BC07882311F084E001C080E09091BB0796
:10138000911182609091BA07911181600E94940638
:101390007AC0C73709F077C0C1EB75C02FEF89E677
:1013A00098E1215080409040E1F700C00000109289
:1013B000C3071092C2071092C1071092C007109283
:1013C000BF071092BE071092BD071092BC075BC00A
:1013D000C1E759C0CEE257C0CFE255C0CFE253C0FB
:1013E000C7EA51C0C8EA4FC0C4EA4DC0C3EA4BC007
:1013F000CDE549C0C0EB47C0CDE745C0CBE243C017
:10140000CFE341C0C0E43FC0C0E33DC0C1E33BC047
:10141000CEE739C0C2E337C0C3E235C0C3E333C04F
:10142000CBE731C0C4E32FC0CBE52DC0C5E32BC053
:10143000CCE729C0C0E627C0C7E325C0CCE523C060
:10144000C8E321C0CEE51FC0C9E31DC0C5EB1BC06A
:10145000CEE319C0C5E217C0C7E815C0C3E813C082
:10146000C8E811C0C9E80FC0CEE20DC0C2E80BC089
:10147000C4E809C0C1E807C0CBE105C0C5E803C0A6
:10148000C6E801C0C0EB8FE98C0F8A3180F48091EF
:10149000C207882321F08091BC07882339F080910E
:1014A000C207811104C08091BC078111C052809194
:1014B000C1078823A1F08FE98C0F8A3110F4C05640
:1014C0000EC08FEB8C0F8A3110F4C05408C0C034AA
:1014D00031F4C0E004C0CEE84ACFCCE848CF109247
:1014E000C5078C2FCF910895CF93DF938FEF0E9484
:1014F00073061092C4071092C5071092C30710928A
:10150000C2071092C1071092C0071092BF07109235
:10151000BE071092BD071092BC071092BB07109235
:10152000BA071092B9071092B8071092B707109235
:10153000B60781E08093B507C4EFD1E08091C5077D
:10154000811109C08FE99FE00197F1F700C0000009
:101550002197A1F704C00E9404088A3A99F7DF9105
:10156000CF910895A1E21A2EAA1BBB1BFD010DC04D
:10157000AA1FBB1FEE1FFF1FA217B307E407F50743
:1015800020F0A21BB30BE40BF50B661F771F881F1F
:10159000991F1A9469F760957095809590959B01B5
:1015A000AC01BD01CF010895EE0FFF1F0590F4912E
:1015B000E02D09940E94E50AA59F900DB49F900D1F
:1015C000A49F800D911D11240895A29FB001B39F87
:1015D000C001A39F700D811D1124911DB29F700D3C
:1015E000811D1124911D0895A0E0B0E0EAEFFAE01A
:1015F0000C944F0EAE014B5F5F4FFA0161917191F8
:10160000AF018091CD079091CE070E94A60CE2E039
:101610000C946B0E20FD09C0FC0123FD05C022FFC8
:1016200002C07383628351834083089544FD17C0D1
:1016300046FD17C0AB01BC01DA01FB01AA0FBB1FBD
:10164000EE1FFF1F1094D1F74A0F5B1F6E1F7F1F05
:10165000CB01BA01660F771F881F991F09C033E0BD
:1016600001C034E0660F771F881F991F3150D1F7F2
:10167000620F711D811D911D08950F931F93CF93CC
:10168000DF938C01C8010E94CB0DEC0197FD08C0CF
:101690000E94B70D892BB1F7B801CE010E94090E47
:1016A000CE01DF91CF911F910F9108958F929F925C
:1016B000AF92BF92EF92FF920F931F93CF93DF935E
:1016C0008C01D62F7A01B22E0E94CB0D9C013327BC
:1016D0002B32310531F02D32310561F48B2D8068CC
:1016E000B82ED15011F480E068C0C8010E94CB0D23
:1016F00097FDF9CFCB2DCD7F2B2D207309F58033AE
:10170000F9F4AA24AA94AD0E09F443C0C8010E94BA
:10171000CB0D97FD3EC09C012F7D33272835310529
:1017200049F4C264D250A9F1C8010E94CB0D97FFC1
:1017300007C02FC0B6FE02C0C26001C0C261DA2D70
:10174000812C912C540120ED280F283080F0C4FF0B
:1017500004C0B8010E94090E19C02A3040F0C6FF2B
:10176000F8CF2F7D3FEE320F363098F727504C2FB1
:10177000C501B4010E94160B4B015C01C260D1503F
:1017800059F0C8010E94CB0D97FFDDCFC1FD04C009
:10179000AACF812C912C5401C7FF08C0B094A0940B
:1017A00090948094811C911CA11CB11C2C2FB5011C
:1017B000A401C7010E940A0B81E0DF91CF911F9124
:1017C0000F91FF90EF90BF90AF909F908F900895F2
:1017D000A0E2B0E0EEEEFBE00C94420E5C01962E2F
:1017E0007A01F9018E010F5F1F4F680180E2D80175
:1017F0001D928A95E9F7D50113968C9080E090E0D0
:10180000612C712C30E061E070E083FC259183FE57
:1018100021918F01522E211103C080E090E092C0EF
:101820002E3511F4009751F1432F50E04817590716
:101830003CF42D3559F12D3219F4772009F103C00C
:10184000772009F46AC0452D469546954695D60100
:10185000A40FB11D452D47708B0102C0000F111F51
:101860004A95E2F7A8015C91452B4C93651459F019
:10187000561410F45394E7CF5A94E5CF31E004C0E6
:101880007724739401C0712C0196BFCF772019F093
:101890008E8180628E83311103C08824839417C0A7
:1018A000F6019E012F5D3F4F8081809581932E1719
:1018B0003F07D1F7F2CFE114F10429F0D7018C935F
:1018C000F70131967F019A94812C9920F9F0C50196
:1018D0000E94CB0D97FD18C0FC01FF2723E0F59572
:1018E000E7952A95E1F7EC0DFD1D208130E0AC0174
:1018F0004770552702C0359527954A95E2F720FD98
:10190000DACFB5010E94090E811087CFE114F104EE
:1019100011F0D7011C92C80115C0422F469546957B
:101920004695D601A40FB11D422F47708B0102C00E
:10193000000F111F4A95E2F7A8015C91452B4C93CB
:10194000622EA2CFA096EFE00C945E0EA0E0B0E075
:10195000ECEAFCE00C94420E6C01EB015A01FC0134
:1019600017821682512CF601E380FE01E3FC85917B
:10197000E3FE8191182FEF01882309F4EEC090E077
:101980000E94B70D892B21F0C6010E943D0BEBCFC1
:10199000153241F4FE01E3FC1591E3FE1191EF01D4
:1019A000153281F4C6010E94CB0D97FDD4C0412FA2
:1019B00050E09C01332724173507A9F2B6010E9495
:1019C000090ECBC01A3239F4E3FC1591E3FE1191F4
:1019D000EF0101E001C000E0F12C20ED210F2A30E1
:1019E00080F402606F2D70E080E090E040E20E94A1
:1019F000160BF62EFE01E3FC1591E3FE1191EF01AB
:101A0000ECCF01FF03C0F11003C0A7C0FF24FA947C
:101A1000183619F01C3651F010C0FE01E3FC159188
:101A2000E3FE1191EF01183641F408600460FE01F5
:101A3000E3FC1591E3FE1191EF01112309F48DC030
:101A4000612F70E08EE691E00E94C00D892B09F4B1
:101A500084C000FD07C0F50180809180C501029619
:101A60005C0102C0812C912C1E3651F4F601468196
:101A7000578160E070E0202FC4010E940A0B73CFF1
:101A80001336A9F401FD02C0FF24F394C6010E949D
:101A9000CB0D97FD60C08114910429F0F40180837F
:101AA000C40101964C01FA94F110F0CF50C01B35DF
:101AB00059F49E01A4016F2DC6010E94E80BEC01B0
:101AC000892B09F044C03EC0C6010E943D0B97FD22
:101AD00042C01F3661F128F4143639F1193651F13C
:101AE00028C0133771F0153701F123C08114910418
:101AF00029F0F4016082C40101964C01FA94FF20A0
:101B000071F0C6010E94CB0D3C0197FD08C00E94F8
:101B1000B70D892B59F3B601C3010E94090E811438
:101B20009104A9F0F401108212C0006203C00061A8
:101B300001C00064202FA4016F2DC6010E94560B26
:101B4000811105C0F6018381807329F406C000FD70
:101B50000ACF539408CF552019F0852D90E002C08C
:101B60008FEF9FEFCDB7DEB7EFE00C945E0E9111D3
:101B70000C94220E803219F089508550C8F70895D0
:101B8000FC010590061621F00020D9F7C001089548
:101B90003197CF010895CF93DF93EC012B8120FF84
:101BA00033C026FF0AC02F7B2B838E819F81019635
:101BB0009F838E838A8190E029C022FF0FC0E88135
:101BC000F9818081082E000C990B009719F420628E
:101BD0002B831AC03196F983E8830EC0EA85FB8512
:101BE000099597FF09C02B81019611F080E201C091
:101BF00080E1822B8B8308C02E813F812F5F3F4F76
:101C00003F832E83992702C08FEF9FEFDF91CF9103
:101C10000895FB01238120FF12C026FD10C08F3FD5
:101C20003FEF930761F082832F7D20642383268119
:101C300037812150310937832683992708958FEF03
:101C40009FEF0895992788270895F999FECF92BDAF
:101C500081BDF89A992780B50895262FF999FECF6E
:101C600092BD81BDF89A019700B4021639F01FBAEF
:101C700020BD0FB6F894FA9AF99A0FBE08952F92E4
:101C80003F924F925F926F927F928F929F92AF920C
:101C9000BF92CF92DF92EF92FF920F931F93CF9359
:101CA000DF93CDB7DEB7CA1BDB0B0FB6F894DEBFF0
:101CB0000FBECDBF09942A88398848885F846E8416
:101CC0007D848C849B84AA84B984C884DF80EE8060
:101CD000FD800C811B81AA81B981CE0FD11D0FB669
:101CE000F894DEBF0FBECDBFED010895F894FFCF8D
:101CF00000000003000000006405690500003031A9
:101D00003233343536373839414243444546283139
:101D100029205374726F6265205479706520202EDB
:101D20002E2E2E2E2E2E2E2E2E2E2E2E203A200011
:101D3000504F530A0D004E45470A0D002832292006
:101D40005374726F6265204C656E677468202E2E26
:101D50002E2E2E2E2E2E2E2E2E2E203A20006D735D
:101D60000A0D00283329204F7574707574204C6F4C
:101D7000676963202E2E2E2E2E2E2E2E2E2E2E2EE8
:101D80002E203A20002834292050726F706167613C
:101D900074696F6E2044656C6179202E2E2E2E2E74
:101DA0002E2E2E203A200075730A0D00283529208A
:101DB0004261636B73706163652073656E64732049
:101DC0002E2E2E2E2E2E2E2E2E2E203A2000444544
:101DD0004C202830783746290A0D004241434B53A6
:101DE00050414345202830783038290A0D002836E4
:101DF00029204461746173206C6174636865642E8A
:101E00002E2E2E2E2E2E2E2E2E2E2E2E203A200030
:101E10005945530A0D004E4F0A0D00283729204519
:101E20007363617065206B65792073656E647320E0
:101E30002E2E2E2E2E2E2E2E2E203A2000307831B1
:101E4000420A0D00307838420A0D004E6F20636F51
:101E50006E66696720696E206D656D6F72792E20E0
:101E600053657474696E672064656661756C74731C
:101E70002E0A0D00436F6E66696775726174696F33
:101E80006E204D656E750A0D005B312D375D2C207F
:101E90005B535D6176652C205B445D656661756CA6
:101EA00074732C205B455D7869743A2000310A0D0B
:101EB0005374726F62652054797065205B505D6F5A
:101EC000736974697665206F72205B4E5D6567612A
:101ED000746976653A2000506F7369746976650A93
:101EE0000D004E656761746976650A0D00320A0D52
:101EF0005374726F6265204C656E67746820696EFA
:101F0000206D732028312D323535293A2000256483
:101F100000330A0D4F7574707574204C6F676963D8
:101F2000205B505D6F736974697665206F72205B0A
:101F30004E5D656761746976653A2000340A0D501C
:101F4000726F7061676174696F6E2064656C61792E
:101F500020696E2075732028302D323535293A20BE
:101F600000350A0D4261636B7370616365207365B0
:101F70006E6473205B425D61636B737061636520A7
:101F8000283078303829206F72205B445D656C659D
:101F90007465202830783766293A20004261636BE7
:101FA00073706163650A0D0044656C6574650A0DA4
:101FB00000360A0D506172616C6C656C206461744E
:101FC0006173205B4C5D617463686564206F72208F
:101FD0005B4E5D6F74206265747765656E206B651E
:101FE000797374726F6B65733A20004C6174636827
:101FF00065640A0D004E6F74206C617463686564DB
:102000000A0D00370A0D4553432073656E64732033
:102010002830785B385D4229206F72202830785B49
:10202000315D42293A2000536176696E672E2E2E6B
:102030000A0D0A0D0044656661756C74730A0D0023
:10204000457869740A0D00546573740A0D005B537A
:102050005D6574205374726F62652C205B435D6C08
:10206000656172205374726F62652C205B575D72DC
:102070006974652056616C75652C205B455D7869D7
:10208000743A2000536574205374726F62650A0DB0
:1020900000436C656172205374726F62650A0D00B3
:1020A00057726974652056616C75650A0D00456E3E
:1020B0007465722056616C75652028646F657320A5
:1020C0006E6F7420696E766572742129205B302DE5
:1020D0003235355D3A20000A0D52657475726E69AD
:1020E0006E6720746F206E6F726D616C206F70650B
:1020F000726174696F6E2E2E2E0A0D004368617234
:10210000616374657273207479706564206F6E20EA
:102110007468697320636F6E736F6C652077696C88
:102120006C2062652073656E7420746F20686F7315
:10213000742076696120706172616C6C656C0A0D47
:1021400000696E746572666163652E0A0D0A0D0082
:102150004354524C2D44203D20746F67676C6520BA
:10216000646973706C6179206D6F64652020202034
:102170004354524C2D52203D2050532F3220726533
:102180007365740A0D004354524C2D54203D207445
:10219000657374206D6F646520202020202020202E
:1021A0002020202020204354524C2D59203D2063D4
:1021B00068616E676520636F6E66696775726174CA
:1021C000696F6E0A0D0A0D0050532F32202D2D3EDF
:1021D00020506172616C6C656C2041534349492009
:1021E000416461707465722076302E30320A0D00C1
:1021F000466F7220465220617A65727479206C6154
:10220000796F7574202D20502E526F656872202DC5
:102210002030322F323032320A0D00496E69746933
:10222000616C697A696E672050532F32206B657933
:10223000626F6172642E2E2E0A0D004C6F6164690C
:102240006E6720636F6E66696775726174696F6E21
:102250002E2E2E0A0D005B3078005D000A0D4861BD
:1022600072642050532F3220526573657420287396
:10227000686F756C6420666C617368292E2E2E0A57
:102280000D003C646973706C6179206F6E3E003C98
:0E229000646973706C6179206F66663E0000B1
:00000001FF
